{
  "_format": "hh-sol-artifact-1",
  "contractName": "Events",
  "sourceName": "contracts/Events.sol",
  "abi": [
    {
      "inputs": [],
      "stateMutability": "nonpayable",
      "type": "constructor"
    },
    {
      "inputs": [
        {
          "internalType": "string",
          "name": "_name",
          "type": "string"
        },
        {
          "internalType": "string",
          "name": "_message",
          "type": "string"
        },
        {
          "internalType": "string",
          "name": "_timeStamp",
          "type": "string"
        }
      ],
      "name": "createEvent",
      "outputs": [],
      "stateMutability": "nonpayable",
      "type": "function"
    },
    {
      "inputs": [
        {
          "internalType": "uint256",
          "name": "",
          "type": "uint256"
        }
      ],
      "name": "events",
      "outputs": [
        {
          "internalType": "string",
          "name": "name",
          "type": "string"
        },
        {
          "internalType": "string",
          "name": "message",
          "type": "string"
        },
        {
          "internalType": "string",
          "name": "timeStamp",
          "type": "string"
        },
        {
          "internalType": "address",
          "name": "userAddress",
          "type": "address"
        }
      ],
      "stateMutability": "view",
      "type": "function"
    },
    {
      "inputs": [],
      "name": "fetchAll",
      "outputs": [
        {
          "components": [
            {
              "internalType": "string",
              "name": "name",
              "type": "string"
            },
            {
              "internalType": "string",
              "name": "message",
              "type": "string"
            },
            {
              "internalType": "string",
              "name": "timeStamp",
              "type": "string"
            },
            {
              "internalType": "address",
              "name": "userAddress",
              "type": "address"
            }
          ],
          "internalType": "struct Events.EventData[]",
          "name": "",
          "type": "tuple[]"
        }
      ],
      "stateMutability": "view",
      "type": "function"
    },
    {
      "inputs": [],
      "name": "getOwner",
      "outputs": [
        {
          "internalType": "address",
          "name": "",
          "type": "address"
        }
      ],
      "stateMutability": "view",
      "type": "function"
    }
  ],
  "bytecode": "0x60806040523480156200001157600080fd5b50336000806101000a81548173ffffffffffffffffffffffffffffffffffffffff021916908373ffffffffffffffffffffffffffffffffffffffff1602179055506200009d6040518060400160405280601e81526020017f4465706c6f79696e67204576656e747320536d61727420436f6e746163740000815250620000a360201b620006911760201c565b62000237565b6200014381604051602401620000ba9190620001b0565b6040516020818303038152906040527f41304fac000000000000000000000000000000000000000000000000000000007bffffffffffffffffffffffffffffffffffffffffffffffffffffffff19166020820180517bffffffffffffffffffffffffffffffffffffffffffffffffffffffff83818316178352505050506200014660201b60201c565b50565b60008151905060006a636f6e736f6c652e6c6f679050602083016000808483855afa5050505050565b60006200017c82620001d4565b620001888185620001df565b93506200019a818560208601620001f0565b620001a58162000226565b840191505092915050565b60006020820190508181036000830152620001cc81846200016f565b905092915050565b600081519050919050565b600082825260208201905092915050565b60005b8381101562000210578082015181840152602081019050620001f3565b8381111562000220576000848401525b50505050565b6000601f19601f8301169050919050565b610dcf80620002476000396000f3fe608060405234801561001057600080fd5b506004361061004c5760003560e01c80630b7914301461005157806327ec486c14610084578063893d20e8146100a25780639b503fd8146100c0575b600080fd5b61006b6004803603810190610066919061090a565b6100dc565b60405161007b9493929190610b1c565b60405180910390f35b61008c6102d4565b6040516100999190610ad8565b60405180910390f35b6100aa61053f565b6040516100b79190610abd565b60405180910390f35b6100da60048036038101906100d59190610873565b610568565b005b600281815481106100ec57600080fd5b906000526020600020906004020160009150905080600001805461010f90610cb0565b80601f016020809104026020016040519081016040528092919081815260200182805461013b90610cb0565b80156101885780601f1061015d57610100808354040283529160200191610188565b820191906000526020600020905b81548152906001019060200180831161016b57829003601f168201915b50505050509080600101805461019d90610cb0565b80601f01602080910402602001604051908101604052809291908181526020018280546101c990610cb0565b80156102165780601f106101eb57610100808354040283529160200191610216565b820191906000526020600020905b8154815290600101906020018083116101f957829003601f168201915b50505050509080600201805461022b90610cb0565b80601f016020809104026020016040519081016040528092919081815260200182805461025790610cb0565b80156102a45780601f10610279576101008083540402835291602001916102a4565b820191906000526020600020905b81548152906001019060200180831161028757829003601f168201915b5050505050908060030160009054906101000a900473ffffffffffffffffffffffffffffffffffffffff16905084565b60606002805480602002602001604051908101604052809291908181526020016000905b82821015610536578382906000526020600020906004020160405180608001604052908160008201805461032b90610cb0565b80601f016020809104026020016040519081016040528092919081815260200182805461035790610cb0565b80156103a45780601f10610379576101008083540402835291602001916103a4565b820191906000526020600020905b81548152906001019060200180831161038757829003601f168201915b505050505081526020016001820180546103bd90610cb0565b80601f01602080910402602001604051908101604052809291908181526020018280546103e990610cb0565b80156104365780601f1061040b57610100808354040283529160200191610436565b820191906000526020600020905b81548152906001019060200180831161041957829003601f168201915b5050505050815260200160028201805461044f90610cb0565b80601f016020809104026020016040519081016040528092919081815260200182805461047b90610cb0565b80156104c85780601f1061049d576101008083540402835291602001916104c8565b820191906000526020600020905b8154815290600101906020018083116104ab57829003601f168201915b505050505081526020016003820160009054906101000a900473ffffffffffffffffffffffffffffffffffffffff1673ffffffffffffffffffffffffffffffffffffffff1673ffffffffffffffffffffffffffffffffffffffff1681525050815260200190600101906102f8565b50505050905090565b60008060009054906101000a900473ffffffffffffffffffffffffffffffffffffffff16905090565b60026040518060800160405280858152602001848152602001838152602001600160009054906101000a900473ffffffffffffffffffffffffffffffffffffffff1673ffffffffffffffffffffffffffffffffffffffff1681525090806001815401808255809150506001900390600052602060002090600402016000909190919091506000820151816000019080519060200190610608929190610753565b506020820151816001019080519060200190610625929190610753565b506040820151816002019080519060200190610642929190610753565b5060608201518160030160006101000a81548173ffffffffffffffffffffffffffffffffffffffff021916908373ffffffffffffffffffffffffffffffffffffffff1602179055505050505050565b610727816040516024016106a59190610afa565b6040516020818303038152906040527f41304fac000000000000000000000000000000000000000000000000000000007bffffffffffffffffffffffffffffffffffffffffffffffffffffffff19166020820180517bffffffffffffffffffffffffffffffffffffffffffffffffffffffff838183161783525050505061072a565b50565b60008151905060006a636f6e736f6c652e6c6f679050602083016000808483855afa5050505050565b82805461075f90610cb0565b90600052602060002090601f01602090048101928261078157600085556107c8565b82601f1061079a57805160ff19168380011785556107c8565b828001600101855582156107c8579182015b828111156107c75782518255916020019190600101906107ac565b5b5090506107d591906107d9565b5090565b5b808211156107f25760008160009055506001016107da565b5090565b600061080961080484610b9b565b610b76565b90508281526020810184848401111561082157600080fd5b61082c848285610c6e565b509392505050565b600082601f83011261084557600080fd5b81356108558482602086016107f6565b91505092915050565b60008135905061086d81610d82565b92915050565b60008060006060848603121561088857600080fd5b600084013567ffffffffffffffff8111156108a257600080fd5b6108ae86828701610834565b935050602084013567ffffffffffffffff8111156108cb57600080fd5b6108d786828701610834565b925050604084013567ffffffffffffffff8111156108f457600080fd5b61090086828701610834565b9150509250925092565b60006020828403121561091c57600080fd5b600061092a8482850161085e565b91505092915050565b600061093f8383610a4c565b905092915050565b61095081610c32565b82525050565b61095f81610c32565b82525050565b600061097082610bdc565b61097a8185610bff565b93508360208202850161098c85610bcc565b8060005b858110156109c857848403895281516109a98582610933565b94506109b483610bf2565b925060208a01995050600181019050610990565b50829750879550505050505092915050565b60006109e582610be7565b6109ef8185610c10565b93506109ff818560208601610c7d565b610a0881610d71565b840191505092915050565b6000610a1e82610be7565b610a288185610c21565b9350610a38818560208601610c7d565b610a4181610d71565b840191505092915050565b60006080830160008301518482036000860152610a6982826109da565b91505060208301518482036020860152610a8382826109da565b91505060408301518482036040860152610a9d82826109da565b9150506060830151610ab26060860182610947565b508091505092915050565b6000602082019050610ad26000830184610956565b92915050565b60006020820190508181036000830152610af28184610965565b905092915050565b60006020820190508181036000830152610b148184610a13565b905092915050565b60006080820190508181036000830152610b368187610a13565b90508181036020830152610b4a8186610a13565b90508181036040830152610b5e8185610a13565b9050610b6d6060830184610956565b95945050505050565b6000610b80610b91565b9050610b8c8282610ce2565b919050565b6000604051905090565b600067ffffffffffffffff821115610bb657610bb5610d42565b5b610bbf82610d71565b9050602081019050919050565b6000819050602082019050919050565b600081519050919050565b600081519050919050565b6000602082019050919050565b600082825260208201905092915050565b600082825260208201905092915050565b600082825260208201905092915050565b6000610c3d82610c44565b9050919050565b600073ffffffffffffffffffffffffffffffffffffffff82169050919050565b6000819050919050565b82818337600083830152505050565b60005b83811015610c9b578082015181840152602081019050610c80565b83811115610caa576000848401525b50505050565b60006002820490506001821680610cc857607f821691505b60208210811415610cdc57610cdb610d13565b5b50919050565b610ceb82610d71565b810181811067ffffffffffffffff82111715610d0a57610d09610d42565b5b80604052505050565b7f4e487b7100000000000000000000000000000000000000000000000000000000600052602260045260246000fd5b7f4e487b7100000000000000000000000000000000000000000000000000000000600052604160045260246000fd5b6000601f19601f8301169050919050565b610d8b81610c64565b8114610d9657600080fd5b5056fea26469706673582212206a779651ffaa9e77971fe9470b88f4b128683af68d09547e81f317f9701c242464736f6c63430008040033",
  "linkReferences": {},
  "deployedLinkReferences": {}
}